{
  "_format": "hh-sol-artifact-1",
  "contractName": "Section",
  "sourceName": "contracts/Section.sol",
  "abi": [
    {
      "inputs": [
        {
          "internalType": "string",
          "name": "_tokenName",
          "type": "string"
        },
        {
          "internalType": "string",
          "name": "_tokenSymbol",
          "type": "string"
        },
        {
          "internalType": "uint256",
          "name": "_cost",
          "type": "uint256"
        },
        {
          "internalType": "uint256",
          "name": "_maxSupply",
          "type": "uint256"
        },
        {
          "internalType": "uint256",
          "name": "_maxMintAmountPerTx",
          "type": "uint256"
        },
        {
          "internalType": "string",
          "name": "_hiddenMetadataUri",
          "type": "string"
        },
        {
          "internalType": "address",
          "name": "_usdcAddress",
          "type": "address"
        }
      ],
      "stateMutability": "nonpayable",
      "type": "constructor"
    },
    {
      "inputs": [],
      "name": "ApprovalCallerNotOwnerNorApproved",
      "type": "error"
    },
    {
      "inputs": [],
      "name": "ApprovalQueryForNonexistentToken",
      "type": "error"
    },
    {
      "inputs": [],
      "name": "ApprovalToCurrentOwner",
      "type": "error"
    },
    {
      "inputs": [],
      "name": "ApproveToCaller",
      "type": "error"
    },
    {
      "inputs": [],
      "name": "BalanceQueryForZeroAddress",
      "type": "error"
    },
    {
      "inputs": [],
      "name": "MintToZeroAddress",
      "type": "error"
    },
    {
      "inputs": [],
      "name": "MintZeroQuantity",
      "type": "error"
    },
    {
      "inputs": [],
      "name": "OwnerQueryForNonexistentToken",
      "type": "error"
    },
    {
      "inputs": [],
      "name": "TransferCallerNotOwnerNorApproved",
      "type": "error"
    },
    {
      "inputs": [],
      "name": "TransferFromIncorrectOwner",
      "type": "error"
    },
    {
      "inputs": [],
      "name": "TransferToNonERC721ReceiverImplementer",
      "type": "error"
    },
    {
      "inputs": [],
      "name": "TransferToZeroAddress",
      "type": "error"
    },
    {
      "anonymous": false,
      "inputs": [
        {
          "indexed": true,
          "internalType": "address",
          "name": "owner",
          "type": "address"
        },
        {
          "indexed": true,
          "internalType": "address",
          "name": "approved",
          "type": "address"
        },
        {
          "indexed": true,
          "internalType": "uint256",
          "name": "tokenId",
          "type": "uint256"
        }
      ],
      "name": "Approval",
      "type": "event"
    },
    {
      "anonymous": false,
      "inputs": [
        {
          "indexed": true,
          "internalType": "address",
          "name": "owner",
          "type": "address"
        },
        {
          "indexed": true,
          "internalType": "address",
          "name": "operator",
          "type": "address"
        },
        {
          "indexed": false,
          "internalType": "bool",
          "name": "approved",
          "type": "bool"
        }
      ],
      "name": "ApprovalForAll",
      "type": "event"
    },
    {
      "anonymous": false,
      "inputs": [
        {
          "indexed": true,
          "internalType": "address",
          "name": "previousOwner",
          "type": "address"
        },
        {
          "indexed": true,
          "internalType": "address",
          "name": "newOwner",
          "type": "address"
        }
      ],
      "name": "OwnershipTransferred",
      "type": "event"
    },
    {
      "anonymous": false,
      "inputs": [
        {
          "indexed": true,
          "internalType": "address",
          "name": "from",
          "type": "address"
        },
        {
          "indexed": true,
          "internalType": "address",
          "name": "to",
          "type": "address"
        },
        {
          "indexed": true,
          "internalType": "uint256",
          "name": "tokenId",
          "type": "uint256"
        }
      ],
      "name": "Transfer",
      "type": "event"
    },
    {
      "inputs": [
        {
          "internalType": "address",
          "name": "to",
          "type": "address"
        },
        {
          "internalType": "uint256",
          "name": "tokenId",
          "type": "uint256"
        }
      ],
      "name": "approve",
      "outputs": [],
      "stateMutability": "nonpayable",
      "type": "function"
    },
    {
      "inputs": [
        {
          "internalType": "address",
          "name": "owner",
          "type": "address"
        }
      ],
      "name": "balanceOf",
      "outputs": [
        {
          "internalType": "uint256",
          "name": "",
          "type": "uint256"
        }
      ],
      "stateMutability": "view",
      "type": "function"
    },
    {
      "inputs": [],
      "name": "cost",
      "outputs": [
        {
          "internalType": "uint256",
          "name": "",
          "type": "uint256"
        }
      ],
      "stateMutability": "view",
      "type": "function"
    },
    {
      "inputs": [
        {
          "internalType": "uint256",
          "name": "tokenId",
          "type": "uint256"
        }
      ],
      "name": "getApproved",
      "outputs": [
        {
          "internalType": "address",
          "name": "",
          "type": "address"
        }
      ],
      "stateMutability": "view",
      "type": "function"
    },
    {
      "inputs": [],
      "name": "hiddenMetadataUri",
      "outputs": [
        {
          "internalType": "string",
          "name": "",
          "type": "string"
        }
      ],
      "stateMutability": "view",
      "type": "function"
    },
    {
      "inputs": [
        {
          "internalType": "address",
          "name": "owner",
          "type": "address"
        },
        {
          "internalType": "address",
          "name": "operator",
          "type": "address"
        }
      ],
      "name": "isApprovedForAll",
      "outputs": [
        {
          "internalType": "bool",
          "name": "",
          "type": "bool"
        }
      ],
      "stateMutability": "view",
      "type": "function"
    },
    {
      "inputs": [],
      "name": "maxMintAmountPerTx",
      "outputs": [
        {
          "internalType": "uint256",
          "name": "",
          "type": "uint256"
        }
      ],
      "stateMutability": "view",
      "type": "function"
    },
    {
      "inputs": [],
      "name": "maxSupply",
      "outputs": [
        {
          "internalType": "uint256",
          "name": "",
          "type": "uint256"
        }
      ],
      "stateMutability": "view",
      "type": "function"
    },
    {
      "inputs": [],
      "name": "merkleRoot",
      "outputs": [
        {
          "internalType": "bytes32",
          "name": "",
          "type": "bytes32"
        }
      ],
      "stateMutability": "view",
      "type": "function"
    },
    {
      "inputs": [
        {
          "internalType": "uint256",
          "name": "_mintAmount",
          "type": "uint256"
        }
      ],
      "name": "mint",
      "outputs": [],
      "stateMutability": "payable",
      "type": "function"
    },
    {
      "inputs": [
        {
          "internalType": "uint256",
          "name": "_mintAmount",
          "type": "uint256"
        },
        {
          "internalType": "address",
          "name": "_receiver",
          "type": "address"
        }
      ],
      "name": "mintForAddress",
      "outputs": [],
      "stateMutability": "nonpayable",
      "type": "function"
    },
    {
      "inputs": [],
      "name": "name",
      "outputs": [
        {
          "internalType": "string",
          "name": "",
          "type": "string"
        }
      ],
      "stateMutability": "view",
      "type": "function"
    },
    {
      "inputs": [],
      "name": "owner",
      "outputs": [
        {
          "internalType": "address",
          "name": "",
          "type": "address"
        }
      ],
      "stateMutability": "view",
      "type": "function"
    },
    {
      "inputs": [
        {
          "internalType": "uint256",
          "name": "tokenId",
          "type": "uint256"
        }
      ],
      "name": "ownerOf",
      "outputs": [
        {
          "internalType": "address",
          "name": "",
          "type": "address"
        }
      ],
      "stateMutability": "view",
      "type": "function"
    },
    {
      "inputs": [],
      "name": "paused",
      "outputs": [
        {
          "internalType": "bool",
          "name": "",
          "type": "bool"
        }
      ],
      "stateMutability": "view",
      "type": "function"
    },
    {
      "inputs": [],
      "name": "renounceOwnership",
      "outputs": [],
      "stateMutability": "nonpayable",
      "type": "function"
    },
    {
      "inputs": [],
      "name": "revealed",
      "outputs": [
        {
          "internalType": "bool",
          "name": "",
          "type": "bool"
        }
      ],
      "stateMutability": "view",
      "type": "function"
    },
    {
      "inputs": [
        {
          "internalType": "address",
          "name": "from",
          "type": "address"
        },
        {
          "internalType": "address",
          "name": "to",
          "type": "address"
        },
        {
          "internalType": "uint256",
          "name": "tokenId",
          "type": "uint256"
        }
      ],
      "name": "safeTransferFrom",
      "outputs": [],
      "stateMutability": "nonpayable",
      "type": "function"
    },
    {
      "inputs": [
        {
          "internalType": "address",
          "name": "from",
          "type": "address"
        },
        {
          "internalType": "address",
          "name": "to",
          "type": "address"
        },
        {
          "internalType": "uint256",
          "name": "tokenId",
          "type": "uint256"
        },
        {
          "internalType": "bytes",
          "name": "_data",
          "type": "bytes"
        }
      ],
      "name": "safeTransferFrom",
      "outputs": [],
      "stateMutability": "nonpayable",
      "type": "function"
    },
    {
      "inputs": [
        {
          "internalType": "address",
          "name": "operator",
          "type": "address"
        },
        {
          "internalType": "bool",
          "name": "approved",
          "type": "bool"
        }
      ],
      "name": "setApprovalForAll",
      "outputs": [],
      "stateMutability": "nonpayable",
      "type": "function"
    },
    {
      "inputs": [
        {
          "internalType": "uint256",
          "name": "_cost",
          "type": "uint256"
        }
      ],
      "name": "setCost",
      "outputs": [],
      "stateMutability": "nonpayable",
      "type": "function"
    },
    {
      "inputs": [
        {
          "internalType": "string",
          "name": "_hiddenMetadataUri",
          "type": "string"
        }
      ],
      "name": "setHiddenMetadataUri",
      "outputs": [],
      "stateMutability": "nonpayable",
      "type": "function"
    },
    {
      "inputs": [
        {
          "internalType": "uint256",
          "name": "_maxMintAmountPerTx",
          "type": "uint256"
        }
      ],
      "name": "setMaxMintAmountPerTx",
      "outputs": [],
      "stateMutability": "nonpayable",
      "type": "function"
    },
    {
      "inputs": [
        {
          "internalType": "bytes32",
          "name": "_merkleRoot",
          "type": "bytes32"
        }
      ],
      "name": "setMerkleRoot",
      "outputs": [],
      "stateMutability": "nonpayable",
      "type": "function"
    },
    {
      "inputs": [
        {
          "internalType": "bool",
          "name": "_state",
          "type": "bool"
        }
      ],
      "name": "setPaused",
      "outputs": [],
      "stateMutability": "nonpayable",
      "type": "function"
    },
    {
      "inputs": [
        {
          "internalType": "bool",
          "name": "_state",
          "type": "bool"
        }
      ],
      "name": "setRevealed",
      "outputs": [],
      "stateMutability": "nonpayable",
      "type": "function"
    },
    {
      "inputs": [
        {
          "internalType": "string",
          "name": "_uriPrefix",
          "type": "string"
        }
      ],
      "name": "setUriPrefix",
      "outputs": [],
      "stateMutability": "nonpayable",
      "type": "function"
    },
    {
      "inputs": [
        {
          "internalType": "string",
          "name": "_uriSuffix",
          "type": "string"
        }
      ],
      "name": "setUriSuffix",
      "outputs": [],
      "stateMutability": "nonpayable",
      "type": "function"
    },
    {
      "inputs": [
        {
          "internalType": "bool",
          "name": "_state",
          "type": "bool"
        }
      ],
      "name": "setWhitelistMintEnabled",
      "outputs": [],
      "stateMutability": "nonpayable",
      "type": "function"
    },
    {
      "inputs": [
        {
          "internalType": "bytes4",
          "name": "interfaceId",
          "type": "bytes4"
        }
      ],
      "name": "supportsInterface",
      "outputs": [
        {
          "internalType": "bool",
          "name": "",
          "type": "bool"
        }
      ],
      "stateMutability": "view",
      "type": "function"
    },
    {
      "inputs": [],
      "name": "symbol",
      "outputs": [
        {
          "internalType": "string",
          "name": "",
          "type": "string"
        }
      ],
      "stateMutability": "view",
      "type": "function"
    },
    {
      "inputs": [
        {
          "internalType": "uint256",
          "name": "_tokenId",
          "type": "uint256"
        }
      ],
      "name": "tokenURI",
      "outputs": [
        {
          "internalType": "string",
          "name": "",
          "type": "string"
        }
      ],
      "stateMutability": "view",
      "type": "function"
    },
    {
      "inputs": [],
      "name": "totalSupply",
      "outputs": [
        {
          "internalType": "uint256",
          "name": "",
          "type": "uint256"
        }
      ],
      "stateMutability": "view",
      "type": "function"
    },
    {
      "inputs": [
        {
          "internalType": "address",
          "name": "from",
          "type": "address"
        },
        {
          "internalType": "address",
          "name": "to",
          "type": "address"
        },
        {
          "internalType": "uint256",
          "name": "tokenId",
          "type": "uint256"
        }
      ],
      "name": "transferFrom",
      "outputs": [],
      "stateMutability": "nonpayable",
      "type": "function"
    },
    {
      "inputs": [
        {
          "internalType": "address",
          "name": "newOwner",
          "type": "address"
        }
      ],
      "name": "transferOwnership",
      "outputs": [],
      "stateMutability": "nonpayable",
      "type": "function"
    },
    {
      "inputs": [],
      "name": "uriPrefix",
      "outputs": [
        {
          "internalType": "string",
          "name": "",
          "type": "string"
        }
      ],
      "stateMutability": "view",
      "type": "function"
    },
    {
      "inputs": [],
      "name": "uriSuffix",
      "outputs": [
        {
          "internalType": "string",
          "name": "",
          "type": "string"
        }
      ],
      "stateMutability": "view",
      "type": "function"
    },
    {
      "inputs": [
        {
          "internalType": "address",
          "name": "_owner",
          "type": "address"
        }
      ],
      "name": "walletOfOwner",
      "outputs": [
        {
          "internalType": "uint256[]",
          "name": "",
          "type": "uint256[]"
        }
      ],
      "stateMutability": "view",
      "type": "function"
    },
    {
      "inputs": [
        {
          "internalType": "address",
          "name": "",
          "type": "address"
        }
      ],
      "name": "whitelistClaimed",
      "outputs": [
        {
          "internalType": "bool",
          "name": "",
          "type": "bool"
        }
      ],
      "stateMutability": "view",
      "type": "function"
    },
    {
      "inputs": [
        {
          "internalType": "uint256",
          "name": "_mintAmount",
          "type": "uint256"
        },
        {
          "internalType": "bytes32[]",
          "name": "_merkleProof",
          "type": "bytes32[]"
        }
      ],
      "name": "whitelistMint",
      "outputs": [],
      "stateMutability": "payable",
      "type": "function"
    },
    {
      "inputs": [],
      "name": "whitelistMintEnabled",
      "outputs": [
        {
          "internalType": "bool",
          "name": "",
          "type": "bool"
        }
      ],
      "stateMutability": "view",
      "type": "function"
    },
    {
      "inputs": [],
      "name": "withdraw",
      "outputs": [],
      "stateMutability": "nonpayable",
      "type": "function"
    }
  ],
  "bytecode": "0x60a06040819052600060808190526200001b91600c9162000299565b5060408051808201909152600580825264173539b7b760d91b60209092019182526200004a91600d9162000299565b506012805462ffffff191690553480156200006457600080fd5b5060405162002c5638038062002c5683398101604081905262000087916200040c565b865187908790620000a090600290602085019062000299565b508051620000b690600390602084019062000299565b5050600160005550620000c9336200013f565b6001600955620000d98562000191565b6010849055620000e983620001e5565b620000f48262000235565b601380546001600160a01b0319166001600160a01b03929092169182179055601280546301000000600160b81b0319166301000000909202919091179055506200051b945050505050565b600880546001600160a01b038381166001600160a01b0319831681179093556040519116919082907f8be0079c531659141344cd1fd0a4f28419497f9722a3daafe3b4186f6b6457e090600090a35050565b6008546001600160a01b03163314620001e05760405162461bcd60e51b8152602060048201819052602482015260008051602062002c3683398151915260448201526064015b60405180910390fd5b600f55565b6008546001600160a01b03163314620002305760405162461bcd60e51b8152602060048201819052602482015260008051602062002c368339815191526044820152606401620001d7565b601155565b6008546001600160a01b03163314620002805760405162461bcd60e51b8152602060048201819052602482015260008051602062002c368339815191526044820152606401620001d7565b80516200029590600e90602084019062000299565b5050565b828054620002a790620004de565b90600052602060002090601f016020900481019282620002cb576000855562000316565b82601f10620002e657805160ff191683800117855562000316565b8280016001018555821562000316579182015b8281111562000316578251825591602001919060010190620002f9565b506200032492915062000328565b5090565b5b8082111562000324576000815560010162000329565b634e487b7160e01b600052604160045260246000fd5b600082601f8301126200036757600080fd5b81516001600160401b03808211156200038457620003846200033f565b604051601f8301601f19908116603f01168101908282118183101715620003af57620003af6200033f565b81604052838152602092508683858801011115620003cc57600080fd5b600091505b83821015620003f05785820183015181830184015290820190620003d1565b83821115620004025760008385830101525b9695505050505050565b600080600080600080600060e0888a0312156200042857600080fd5b87516001600160401b03808211156200044057600080fd5b6200044e8b838c0162000355565b985060208a01519150808211156200046557600080fd5b620004738b838c0162000355565b975060408a0151965060608a0151955060808a0151945060a08a01519150808211156200049f57600080fd5b50620004ae8a828b0162000355565b60c08a015190935090506001600160a01b0381168114620004ce57600080fd5b8091505092959891949750929550565b600181811c90821680620004f357607f821691505b602082108114156200051557634e487b7160e01b600052602260045260246000fd5b50919050565b61270b806200052b6000396000f3fe6080604052600436106102515760003560e01c806370a0823111610139578063b071401b116100b6578063d5abeb011161007a578063d5abeb011461069d578063db4bec44146106b3578063e0a80853146106e3578063e985e9c514610703578063efbd73f41461074c578063f2fde38b1461076c57600080fd5b8063b071401b1461060a578063b767a0981461062a578063b88d4fde1461064a578063c87b56dd1461066a578063d2cab0561461068a57600080fd5b806394354fd0116100fd57806394354fd01461059757806395d89b41146105ad578063a0712d68146105c2578063a22cb465146105d5578063a45ba8e7146105f557600080fd5b806370a0823114610504578063715018a6146105245780637cb64759146105395780637ec4a659146105595780638da5cb5b1461057957600080fd5b80633ccfd60b116101d2578063518302271161019657806351830227146104615780635503a0e8146104815780635c975abb1461049657806362b99ad4146104b05780636352211e146104c55780636caede3d146104e557600080fd5b80633ccfd60b146103bf57806342842e0e146103d4578063438b6300146103f457806344a0d68a146104215780634fdd43cb1461044157600080fd5b806316ba10e01161021957806316ba10e01461032b57806316c38b3c1461034b57806318160ddd1461036b57806323b872dd146103895780632eb4a7ab146103a957600080fd5b806301ffc9a71461025657806306fdde031461028b578063081812fc146102ad578063095ea7b3146102e557806313faede614610307575b600080fd5b34801561026257600080fd5b50610276610271366004611ff5565b61078c565b60405190151581526020015b60405180910390f35b34801561029757600080fd5b506102a06107de565b604051610282919061206a565b3480156102b957600080fd5b506102cd6102c836600461207d565b610870565b6040516001600160a01b039091168152602001610282565b3480156102f157600080fd5b506103056103003660046120b2565b6108b4565b005b34801561031357600080fd5b5061031d600f5481565b604051908152602001610282565b34801561033757600080fd5b50610305610346366004612167565b610942565b34801561035757600080fd5b506103056103663660046121bd565b61098c565b34801561037757600080fd5b5061031d600154600054036000190190565b34801561039557600080fd5b506103056103a43660046121da565b6109c9565b3480156103b557600080fd5b5061031d600a5481565b3480156103cb57600080fd5b506103056109d4565b3480156103e057600080fd5b506103056103ef3660046121da565b610acf565b34801561040057600080fd5b5061041461040f366004612216565b610aea565b6040516102829190612231565b34801561042d57600080fd5b5061030561043c36600461207d565b610c31565b34801561044d57600080fd5b5061030561045c366004612167565b610c60565b34801561046d57600080fd5b506012546102769062010000900460ff1681565b34801561048d57600080fd5b506102a0610c9d565b3480156104a257600080fd5b506012546102769060ff1681565b3480156104bc57600080fd5b506102a0610d2b565b3480156104d157600080fd5b506102cd6104e036600461207d565b610d38565b3480156104f157600080fd5b5060125461027690610100900460ff1681565b34801561051057600080fd5b5061031d61051f366004612216565b610d4a565b34801561053057600080fd5b50610305610d98565b34801561054557600080fd5b5061030561055436600461207d565b610dce565b34801561056557600080fd5b50610305610574366004612167565b610dfd565b34801561058557600080fd5b506008546001600160a01b03166102cd565b3480156105a357600080fd5b5061031d60115481565b3480156105b957600080fd5b506102a0610e3a565b6103056105d036600461207d565b610e49565b3480156105e157600080fd5b506103056105f0366004612275565b61100e565b34801561060157600080fd5b506102a06110a4565b34801561061657600080fd5b5061030561062536600461207d565b6110b1565b34801561063657600080fd5b506103056106453660046121bd565b6110e0565b34801561065657600080fd5b506103056106653660046122ac565b611124565b34801561067657600080fd5b506102a061068536600461207d565b61116f565b610305610698366004612327565b6112df565b3480156106a957600080fd5b5061031d60105481565b3480156106bf57600080fd5b506102766106ce366004612216565b600b6020526000908152604090205460ff1681565b3480156106ef57600080fd5b506103056106fe3660046121bd565b611544565b34801561070f57600080fd5b5061027661071e3660046123a5565b6001600160a01b03918216600090815260076020908152604080832093909416825291909152205460ff1690565b34801561075857600080fd5b506103056107673660046123d8565b61158a565b34801561077857600080fd5b50610305610787366004612216565b61162a565b60006001600160e01b031982166380ac58cd60e01b14806107bd57506001600160e01b03198216635b5e139f60e01b145b806107d857506301ffc9a760e01b6001600160e01b03198316145b92915050565b6060600280546107ed906123fb565b80601f0160208091040260200160405190810160405280929190818152602001828054610819906123fb565b80156108665780601f1061083b57610100808354040283529160200191610866565b820191906000526020600020905b81548152906001019060200180831161084957829003601f168201915b5050505050905090565b600061087b826116c5565b610898576040516333d1c03960e21b815260040160405180910390fd5b506000908152600660205260409020546001600160a01b031690565b60006108bf82610d38565b9050806001600160a01b0316836001600160a01b031614156108f45760405163250fdee360e21b815260040160405180910390fd5b336001600160a01b038216148015906109145750610912813361071e565b155b15610932576040516367d9dca160e11b815260040160405180910390fd5b61093d8383836116fe565b505050565b6008546001600160a01b031633146109755760405162461bcd60e51b815260040161096c90612436565b60405180910390fd5b805161098890600d906020840190611f46565b5050565b6008546001600160a01b031633146109b65760405162461bcd60e51b815260040161096c90612436565b6012805460ff1916911515919091179055565b61093d83838361175a565b6008546001600160a01b031633146109fe5760405162461bcd60e51b815260040161096c90612436565b60026009541415610a515760405162461bcd60e51b815260206004820152601f60248201527f5265656e7472616e637947756172643a207265656e7472616e742063616c6c00604482015260640161096c565b60026009556000610a6a6008546001600160a01b031690565b6001600160a01b03164760405160006040518083038185875af1925050503d8060008114610ab4576040519150601f19603f3d011682016040523d82523d6000602084013e610ab9565b606091505b5050905080610ac757600080fd5b506001600955565b61093d83838360405180602001604052806000815250611124565b60606000610af783610d4a565b90506000816001600160401b03811115610b1357610b136120dc565b604051908082528060200260200182016040528015610b3c578160200160208202803683370190505b50905060016000805b8482108015610b5657506010548311155b15610c2657600083815260046020908152604091829020825160608101845290546001600160a01b0381168252600160a01b81046001600160401b031692820192909252600160e01b90910460ff161580159282018390529091610bc3575080516001600160a01b031615155b15610bcd57805191505b876001600160a01b0316826001600160a01b03161415610c135783858481518110610bfa57610bfa61246b565b602090810291909101015282610c0f81612497565b9350505b83610c1d81612497565b94505050610b45565b509195945050505050565b6008546001600160a01b03163314610c5b5760405162461bcd60e51b815260040161096c90612436565b600f55565b6008546001600160a01b03163314610c8a5760405162461bcd60e51b815260040161096c90612436565b805161098890600e906020840190611f46565b600d8054610caa906123fb565b80601f0160208091040260200160405190810160405280929190818152602001828054610cd6906123fb565b8015610d235780601f10610cf857610100808354040283529160200191610d23565b820191906000526020600020905b815481529060010190602001808311610d0657829003601f168201915b505050505081565b600c8054610caa906123fb565b6000610d4382611948565b5192915050565b60006001600160a01b038216610d73576040516323d3ad8160e21b815260040160405180910390fd5b506001600160a01b03166000908152600560205260409020546001600160401b031690565b6008546001600160a01b03163314610dc25760405162461bcd60e51b815260040161096c90612436565b610dcc6000611a6f565b565b6008546001600160a01b03163314610df85760405162461bcd60e51b815260040161096c90612436565b600a55565b6008546001600160a01b03163314610e275760405162461bcd60e51b815260040161096c90612436565b805161098890600c906020840190611f46565b6060600380546107ed906123fb565b80600081118015610e5c57506011548111155b610e785760405162461bcd60e51b815260040161096c906124b2565b60105481610e8d600154600054036000190190565b610e9791906124e0565b1115610eb55760405162461bcd60e51b815260040161096c906124f8565b8180600f54610ec49190612526565b341015610f095760405162461bcd60e51b8152602060048201526013602482015272496e73756666696369656e742066756e64732160681b604482015260640161096c565b60125460ff1615610f5c5760405162461bcd60e51b815260206004820152601760248201527f54686520636f6e74726163742069732070617573656421000000000000000000604482015260640161096c565b601254600f546040516323b872dd60e01b81523360048201523060248201526044810191909152600091630100000090046001600160a01b0316906323b872dd90606401602060405180830381600087803b158015610fba57600080fd5b505af1158015610fce573d6000803e3d6000fd5b505050506040513d601f19601f82011682018060405250810190610ff29190612545565b905080610ffe57600080fd5b6110083385611ac1565b50505050565b6001600160a01b0382163314156110385760405163b06307db60e01b815260040160405180910390fd5b3360008181526007602090815260408083206001600160a01b03871680855290835292819020805460ff191686151590811790915590519081529192917f17307eab39ab6107e8899845ad3d59bd9653f200f220920489ca2b5937696c31910160405180910390a35050565b600e8054610caa906123fb565b6008546001600160a01b031633146110db5760405162461bcd60e51b815260040161096c90612436565b601155565b6008546001600160a01b0316331461110a5760405162461bcd60e51b815260040161096c90612436565b601280549115156101000261ff0019909216919091179055565b61112f84848461175a565b6001600160a01b0383163b15158015611151575061114f84848484611adb565b155b15611008576040516368d2bf6b60e11b815260040160405180910390fd5b606061117a826116c5565b6111de5760405162461bcd60e51b815260206004820152602f60248201527f4552433732314d657461646174613a2055524920717565727920666f72206e6f60448201526e3732bc34b9ba32b73a103a37b5b2b760891b606482015260840161096c565b60125462010000900460ff1661128057600e80546111fb906123fb565b80601f0160208091040260200160405190810160405280929190818152602001828054611227906123fb565b80156112745780601f1061124957610100808354040283529160200191611274565b820191906000526020600020905b81548152906001019060200180831161125757829003601f168201915b50505050509050919050565b600061128a611bd3565b905060008151116112aa57604051806020016040528060008152506112d8565b806112b484611be2565b600d6040516020016112c893929190612562565b6040516020818303038152906040525b9392505050565b826000811180156112f257506011548111155b61130e5760405162461bcd60e51b815260040161096c906124b2565b60105481611323600154600054036000190190565b61132d91906124e0565b111561134b5760405162461bcd60e51b815260040161096c906124f8565b8380600f5461135a9190612526565b34101561139f5760405162461bcd60e51b8152602060048201526013602482015272496e73756666696369656e742066756e64732160681b604482015260640161096c565b601254610100900460ff166114015760405162461bcd60e51b815260206004820152602260248201527f5468652077686974656c6973742073616c65206973206e6f7420656e61626c65604482015261642160f01b606482015260840161096c565b336000908152600b602052604090205460ff16156114615760405162461bcd60e51b815260206004820152601860248201527f4164647265737320616c726561647920636c61696d6564210000000000000000604482015260640161096c565b6040516bffffffffffffffffffffffff193360601b1660208201526000906034016040516020818303038152906040528051906020012090506114db85858080602002602001604051908101604052809392919081815260200183836020028082843760009201919091525050600a549150849050611cdf565b6115185760405162461bcd60e51b815260206004820152600e60248201526d496e76616c69642070726f6f662160901b604482015260640161096c565b336000818152600b60205260409020805460ff1916600117905561153c9087611ac1565b505050505050565b6008546001600160a01b0316331461156e5760405162461bcd60e51b815260040161096c90612436565b60128054911515620100000262ff000019909216919091179055565b8160008111801561159d57506011548111155b6115b95760405162461bcd60e51b815260040161096c906124b2565b601054816115ce600154600054036000190190565b6115d891906124e0565b11156115f65760405162461bcd60e51b815260040161096c906124f8565b6008546001600160a01b031633146116205760405162461bcd60e51b815260040161096c90612436565b61093d8284611ac1565b6008546001600160a01b031633146116545760405162461bcd60e51b815260040161096c90612436565b6001600160a01b0381166116b95760405162461bcd60e51b815260206004820152602660248201527f4f776e61626c653a206e6577206f776e657220697320746865207a65726f206160448201526564647265737360d01b606482015260840161096c565b6116c281611a6f565b50565b6000816001111580156116d9575060005482105b80156107d8575050600090815260046020526040902054600160e01b900460ff161590565b60008281526006602052604080822080546001600160a01b0319166001600160a01b0387811691821790925591518593918516917f8c5be1e5ebec7d5bd14f71427d1e84f3dd0314c0f7b2291e5b200ac8c7c3b92591a4505050565b600061176582611948565b9050836001600160a01b031681600001516001600160a01b03161461179c5760405162a1148160e81b815260040160405180910390fd5b6000336001600160a01b03861614806117ba57506117ba853361071e565b806117d55750336117ca84610870565b6001600160a01b0316145b9050806117f557604051632ce44b5f60e11b815260040160405180910390fd5b6001600160a01b03841661181c57604051633a954ecd60e21b815260040160405180910390fd5b611828600084876116fe565b6001600160a01b038581166000908152600560209081526040808320805467ffffffffffffffff198082166001600160401b0392831660001901831617909255898616808652838620805493841693831660019081018416949094179055898652600490945282852080546001600160e01b031916909417600160a01b429092169190910217835587018084529220805491939091166118fc5760005482146118fc57805460208601516001600160401b0316600160a01b026001600160e01b03199091166001600160a01b038a16171781555b50505082846001600160a01b0316866001600160a01b03167fddf252ad1be2c89b69c2b068fc378daa952ba7f163c4a11628f55a4df523b3ef60405160405180910390a45b5050505050565b60408051606081018252600080825260208201819052918101919091528180600111158015611978575060005481105b15611a5657600081815260046020908152604091829020825160608101845290546001600160a01b0381168252600160a01b81046001600160401b031692820192909252600160e01b90910460ff16151591810182905290611a545780516001600160a01b0316156119eb579392505050565b5060001901600081815260046020908152604091829020825160608101845290546001600160a01b038116808352600160a01b82046001600160401b031693830193909352600160e01b900460ff1615159281019290925215611a4f579392505050565b6119eb565b505b604051636f96cda160e11b815260040160405180910390fd5b600880546001600160a01b038381166001600160a01b0319831681179093556040519116919082907f8be0079c531659141344cd1fd0a4f28419497f9722a3daafe3b4186f6b6457e090600090a35050565b610988828260405180602001604052806000815250611cf5565b604051630a85bd0160e11b81526000906001600160a01b0385169063150b7a0290611b10903390899088908890600401612626565b602060405180830381600087803b158015611b2a57600080fd5b505af1925050508015611b5a575060408051601f3d908101601f19168201909252611b5791810190612663565b60015b611bb5573d808015611b88576040519150601f19603f3d011682016040523d82523d6000602084013e611b8d565b606091505b508051611bad576040516368d2bf6b60e11b815260040160405180910390fd5b805181602001fd5b6001600160e01b031916630a85bd0160e11b1490505b949350505050565b6060600c80546107ed906123fb565b606081611c065750506040805180820190915260018152600360fc1b602082015290565b8160005b8115611c305780611c1a81612497565b9150611c299050600a83612696565b9150611c0a565b6000816001600160401b03811115611c4a57611c4a6120dc565b6040519080825280601f01601f191660200182016040528015611c74576020820181803683370190505b5090505b8415611bcb57611c896001836126aa565b9150611c96600a866126c1565b611ca19060306124e0565b60f81b818381518110611cb657611cb661246b565b60200101906001600160f81b031916908160001a905350611cd8600a86612696565b9450611c78565b600082611cec8584611d02565b14949350505050565b61093d8383836001611d76565b600081815b8451811015611d6e576000858281518110611d2457611d2461246b565b60200260200101519050808311611d4a5760008381526020829052604090209250611d5b565b600081815260208490526040902092505b5080611d6681612497565b915050611d07565b509392505050565b6000546001600160a01b038516611d9f57604051622e076360e81b815260040160405180910390fd5b83611dbd5760405163b562e8dd60e01b815260040160405180910390fd5b6001600160a01b038516600081815260056020908152604080832080546fffffffffffffffffffffffffffffffff1981166001600160401b038083168c0181169182176801000000000000000067ffffffffffffffff1990941690921783900481168c01811690920217909155858452600490925290912080546001600160e01b031916909217600160a01b429092169190910217905580808501838015611e6e57506001600160a01b0387163b15155b15611ef7575b60405182906001600160a01b038916906000907fddf252ad1be2c89b69c2b068fc378daa952ba7f163c4a11628f55a4df523b3ef908290a4611ebf6000888480600101955088611adb565b611edc576040516368d2bf6b60e11b815260040160405180910390fd5b80821415611e74578260005414611ef257600080fd5b611f3d565b5b6040516001830192906001600160a01b038916906000907fddf252ad1be2c89b69c2b068fc378daa952ba7f163c4a11628f55a4df523b3ef908290a480821415611ef8575b50600055611941565b828054611f52906123fb565b90600052602060002090601f016020900481019282611f745760008555611fba565b82601f10611f8d57805160ff1916838001178555611fba565b82800160010185558215611fba579182015b82811115611fba578251825591602001919060010190611f9f565b50611fc6929150611fca565b5090565b5b80821115611fc65760008155600101611fcb565b6001600160e01b0319811681146116c257600080fd5b60006020828403121561200757600080fd5b81356112d881611fdf565b60005b8381101561202d578181015183820152602001612015565b838111156110085750506000910152565b60008151808452612056816020860160208601612012565b601f01601f19169290920160200192915050565b6020815260006112d8602083018461203e565b60006020828403121561208f57600080fd5b5035919050565b80356001600160a01b03811681146120ad57600080fd5b919050565b600080604083850312156120c557600080fd5b6120ce83612096565b946020939093013593505050565b634e487b7160e01b600052604160045260246000fd5b60006001600160401b038084111561210c5761210c6120dc565b604051601f8501601f19908116603f01168101908282118183101715612134576121346120dc565b8160405280935085815286868601111561214d57600080fd5b858560208301376000602087830101525050509392505050565b60006020828403121561217957600080fd5b81356001600160401b0381111561218f57600080fd5b8201601f810184136121a057600080fd5b611bcb848235602084016120f2565b80151581146116c257600080fd5b6000602082840312156121cf57600080fd5b81356112d8816121af565b6000806000606084860312156121ef57600080fd5b6121f884612096565b925061220660208501612096565b9150604084013590509250925092565b60006020828403121561222857600080fd5b6112d882612096565b6020808252825182820181905260009190848201906040850190845b818110156122695783518352928401929184019160010161224d565b50909695505050505050565b6000806040838503121561228857600080fd5b61229183612096565b915060208301356122a1816121af565b809150509250929050565b600080600080608085870312156122c257600080fd5b6122cb85612096565b93506122d960208601612096565b92506040850135915060608501356001600160401b038111156122fb57600080fd5b8501601f8101871361230c57600080fd5b61231b878235602084016120f2565b91505092959194509250565b60008060006040848603121561233c57600080fd5b8335925060208401356001600160401b038082111561235a57600080fd5b818601915086601f83011261236e57600080fd5b81358181111561237d57600080fd5b8760208260051b850101111561239257600080fd5b6020830194508093505050509250925092565b600080604083850312156123b857600080fd5b6123c183612096565b91506123cf60208401612096565b90509250929050565b600080604083850312156123eb57600080fd5b823591506123cf60208401612096565b600181811c9082168061240f57607f821691505b6020821081141561243057634e487b7160e01b600052602260045260246000fd5b50919050565b6020808252818101527f4f776e61626c653a2063616c6c6572206973206e6f7420746865206f776e6572604082015260600190565b634e487b7160e01b600052603260045260246000fd5b634e487b7160e01b600052601160045260246000fd5b60006000198214156124ab576124ab612481565b5060010190565b602080825260149082015273496e76616c6964206d696e7420616d6f756e742160601b604082015260600190565b600082198211156124f3576124f3612481565b500190565b6020808252601490820152734d617820737570706c792065786365656465642160601b604082015260600190565b600081600019048311821515161561254057612540612481565b500290565b60006020828403121561255757600080fd5b81516112d8816121af565b6000845160206125758285838a01612012565b8551918401916125888184848a01612012565b8554920191600090600181811c90808316806125a557607f831692505b8583108114156125c357634e487b7160e01b85526022600452602485fd5b8080156125d757600181146125e857612615565b60ff19851688528388019550612615565b60008b81526020902060005b8581101561260d5781548a8201529084019088016125f4565b505083880195505b50939b9a5050505050505050505050565b6001600160a01b03858116825284166020820152604081018390526080606082018190526000906126599083018461203e565b9695505050505050565b60006020828403121561267557600080fd5b81516112d881611fdf565b634e487b7160e01b600052601260045260246000fd5b6000826126a5576126a5612680565b500490565b6000828210156126bc576126bc612481565b500390565b6000826126d0576126d0612680565b50069056fea264697066735822122045d88d8fe44d7aa3621f8f761b8ba0b840b4bf1d05d7621bd6e0669ef9d5927064736f6c634300080900334f776e61626c653a2063616c6c6572206973206e6f7420746865206f776e6572",
  "linkReferences": {},
  "deployedLinkReferences": {}
}